{
  "contractName": "Wallet",
  "abi": [
    {
      "constant": true,
      "inputs": [
        {
          "internalType": "address",
          "name": "",
          "type": "address"
        }
      ],
      "name": "wallet",
      "outputs": [
        {
          "internalType": "int256",
          "name": "",
          "type": "int256"
        }
      ],
      "payable": false,
      "stateMutability": "view",
      "type": "function"
    },
    {
      "constant": false,
      "inputs": [
        {
          "internalType": "address",
          "name": "owner",
          "type": "address"
        },
        {
          "internalType": "int256",
          "name": "howMuch",
          "type": "int256"
        }
      ],
      "name": "put",
      "outputs": [],
      "payable": false,
      "stateMutability": "nonpayable",
      "type": "function"
    },
    {
      "constant": false,
      "inputs": [
        {
          "internalType": "address",
          "name": "owner",
          "type": "address"
        },
        {
          "internalType": "int256",
          "name": "howMuch",
          "type": "int256"
        }
      ],
      "name": "withdraw",
      "outputs": [],
      "payable": false,
      "stateMutability": "nonpayable",
      "type": "function"
    },
    {
      "constant": true,
      "inputs": [
        {
          "internalType": "address",
          "name": "owner",
          "type": "address"
        }
      ],
      "name": "balance",
      "outputs": [
        {
          "internalType": "int256",
          "name": "",
          "type": "int256"
        }
      ],
      "payable": false,
      "stateMutability": "view",
      "type": "function"
    }
  ],
  "bytecode": "0x608060405234801561001057600080fd5b50610517806100206000396000f3fe608060405234801561001057600080fd5b506004361061004c5760003560e01c80637da7d3f114610051578063a56cc4391461009f578063b129a94e146100f7578063e3d670d714610145575b600080fd5b61009d6004803603604081101561006757600080fd5b81019080803573ffffffffffffffffffffffffffffffffffffffff1690602001909291908035906020019092919050505061019d565b005b6100e1600480360360208110156100b557600080fd5b81019080803573ffffffffffffffffffffffffffffffffffffffff1690602001909291905050506102fe565b6040518082815260200191505060405180910390f35b6101436004803603604081101561010d57600080fd5b81019080803573ffffffffffffffffffffffffffffffffffffffff16906020019092919080359060200190929190505050610316565b005b6101876004803603602081101561015b57600080fd5b81019080803573ffffffffffffffffffffffffffffffffffffffff169060200190929190505050610477565b6040518082815260200191505060405180910390f35b80600081136101f7576040517f08c379a00000000000000000000000000000000000000000000000000000000081526004018080602001828103825260238152602001806104c06023913960400191505060405180910390fd5b60008060008573ffffffffffffffffffffffffffffffffffffffff1673ffffffffffffffffffffffffffffffffffffffff168152602001908152602001600020549050828112156102b0576040517f08c379a000000000000000000000000000000000000000000000000000000000815260040180806020018281038252601c8152602001807f4e6f207469656e6520737566696369656e74652064696e6572616c2e0000000081525060200191505060405180910390fd5b8281039050806000808673ffffffffffffffffffffffffffffffffffffffff1673ffffffffffffffffffffffffffffffffffffffff1681526020019081526020016000208190555050505050565b60006020528060005260406000206000915090505481565b8060008113610370576040517f08c379a00000000000000000000000000000000000000000000000000000000081526004018080602001828103825260238152602001806104c06023913960400191505060405180910390fd5b60008060008573ffffffffffffffffffffffffffffffffffffffff1673ffffffffffffffffffffffffffffffffffffffff16815260200190815260200160002054905082811215610429576040517f08c379a000000000000000000000000000000000000000000000000000000000815260040180806020018281038252601c8152602001807f4e6f207469656e6520737566696369656e74652064696e6572616c2e0000000081525060200191505060405180910390fd5b8281019050806000808673ffffffffffffffffffffffffffffffffffffffff1673ffffffffffffffffffffffffffffffffffffffff1681526020019081526020016000208190555050505050565b60008060008373ffffffffffffffffffffffffffffffffffffffff1673ffffffffffffffffffffffffffffffffffffffff16815260200190815260200160002054905091905056fe5469656e6520706c617461207061726120636f6d7072617220656c20706173616a652ea265627a7a723158205695173b101eab1c8b4ee5a80bad733b2c7a17506640f4850bc80b64bebed9c464736f6c63430005100032",
  "source": "pragma solidity >=0.4.21 <0.7.0;\r\n\r\ncontract Wallet {\r\n\r\n    mapping(address => int256) public wallet;\r\n\r\n    modifier positive(int256 value) {\r\n        require(value > 0, \"Tiene plata para comprar el pasaje.\");\r\n        _;\r\n    }\r\n\r\n    // poner plata en la billetera\r\n    function put(address owner, int256 howMuch) public positive(howMuch) {\r\n        int256 money = wallet[owner];\r\n        require(money >= howMuch, \"No tiene suficiente dineral.\");\r\n        money = money + howMuch;\r\n        wallet[owner] = money;\r\n    }\r\n\r\n    // sacar plata de la billetera\r\n    function withdraw(address owner, int256 howMuch) public positive(howMuch) {\r\n        int256 money = wallet[owner];\r\n        require(money >= howMuch, \"No tiene suficiente dineral.\");\r\n        money = money - howMuch;\r\n        wallet[owner] = money;\r\n    }\r\n\r\n    function balance(address owner) public view returns (int256) {\r\n        return wallet[owner];\r\n    }\r\n\r\n}",
  "sourcePath": "F:\\ethereum\\truffle\\contracts\\Wallet.sol",
  "compiler": {
    "name": "solc",
    "version": "0.5.16+commit.9c3226ce.Emscripten.clang"
  },
  "schemaVersion": "3.2.0",
  "updatedAt": "2020-06-24T17:06:43.756Z",
  "networkType": "ethereum",
  "devdoc": {
    "methods": {}
  },
  "userdoc": {
    "methods": {}
  }
}